:020000040000FA
:040000000AEF00F013
:100008007782F2B4C5EC0AF077921100AEEF08F0EF
:10001800C2D0BCEC0AF0766E765006E0760402E0B8
:10002800ECEF0AF0CEEF0AF0D7EC08F0230AD8A4D8
:10003800120021EC0BF003D0090E216E090C2050A0
:10004800D3D8D8A412007450010A02E19FEF09F036
:10005800030A02E172EF09F0010A02E15AEF09F01E
:10006800070A02E1F3EF0AF0010AD8A41200E4D764
:100078002050020F216E1F6A120045EC0BF0000998
:1000880001E112004E0E6F6E1F0EAAD857EC08F051
:100098001F2A212A120045EC0BF0000901E1120089
:1000A800610E6F6E1F0E9CD857EC08F01F5003E1CD
:1000B800212A1F2A1200010E216E010C45EC0BF0BB
:1000C800000901E112000D0E6F6E1F0E89D857EC62
:1000D80008F01F50EDE0EFD745EC0BF0000901E107
:1000E8001200240E6F6E1F0E7BD857EC08F0F1D764
:1000F80045EC0BF0000901E11200390E6F6E1F0E7E
:100108006FD857EC08F0E5D745EC0BF0000901E192
:100118001200F70E6F6E1F0E63D857EC08F0CBD79E
:1001280045EC0BF0000901E1120086EC0AF0000E24
:100138006A6A48EC07F0C30E5E6E1F0E5F6ED6EC5F
:100148000AF0A7D745EC0BF0000901E1120068ECB2
:100158000BF0746E74C05EF05F6AD6EC0AF099D743
:1001680045EC0BF0000901E11200210EF0EC09F05A
:10017800545027EC0AF08DD7545084EC08F05F50A7
:100188005E1006E1400E5C5C1F0E5D58D8A01200A0
:10019800216A66EF0BF0215027D8D8A412007450BA
:1001A800D8B41200010A01E134D7030A01E160D78B
:1001B800010A01E162D7070A01E16DD7010A01E1ED
:1001C8007DD7030A89E0010A93E00F0A9DE0010A3E
:1001D800A7E0030AB7E0010AC3E0070ACDE012006E
:1001E800706E1FC071F01200746E756A755012003F
:1001F800B4D03A500CE05B5084EC08F05F505E10CD
:1002080002E1D4D804E33A6A3C68010E3B6E7AEC0A
:100218000AF082A082B202D082A612003B6A68D09D
:100228005A5027EF0AF082A082B205D082B603D0D6
:10023800010E406E010C5A5084EC08F05F505E10BD
:100248005D1004E1500E5C5CD8A01200402A5B509F
:1002580027EF0AF0D8908230050B756E040E7518DA
:1002680002E1020E756ED8908130070B746E040E91
:10027800741801E174067450030DF50EF324726EC0
:100288001E0EF420736E755081D8F5CF3DF03F50A7
:1002980008E0090E3D1805E00B0E3D1802E0402A63
:1002A8001200050E406E050C3D503C180DE1E90E9C
:1002B8003D24F66EF76A1E0EF7220800F550392A1B
:1002C80039620CD0396A0AD03A50FCE03CC03DF0A3
:1002D800010E3B6E3BC040F03A6A1200010E3A6EC6
:1002E8003DC03CF0DCD782A082B2120082B6120078
:1002F800402A96D782A082B202D082A602D04006B7
:1003080012005A5084EC08F05F505E105D1004E152
:10031800500E5C5CD8A01200010E406E3F5006E003
:10032800090E3D1803E00B0E3D1803E1010E3B6E6C
:100338000AD035D8DECF72F0DDCF73F0395026D829
:10034800F55061EC0AF0D10E3D24F66EF76A1E0EE8
:10035800F7220800F5509DEF0AF04050726E736A5C
:100368007350D8A412007250D8B41200010A01E1E7
:1003780040D7030A01E157D7010A01E16BD7070A01
:1003880093E0010AB0E0030AB5E012007226000EFD
:10039800732272C0F6FF73C0F7FF0800000C3D50CF
:1003A800020DF350C80FD96EDA6A1200A00E5C5C19
:1003B8000F0E5D581200A2D0D7EC08F0766E2A0E08
:1003C8007618D8A412001506A8EF0AF0BCEC0AF0BB
:1003D800766E765006E0760402E0DEEF0AF0C8EFAB
:1003E80009F0D7EC08F0766E230E76180CE164EC71
:1003F8000BF086EC0AF0AD0E5E6E1F0E5F6ED6EC4B
:100408000AF0152A12002A0E7618D8A41200156AC6
:1004180064EC0BF0A8EF0AF04FEC0BF0000901E1D7
:100428001200500E39EC0BF0ECD752EC0BF000092F
:1004380001E1120060EC0BF04B0AE3E012004FEC14
:100448000BF0000901E11200135007E174D8D96ECE
:10045800DA6ADF5002E1132A1200020E131804E1CF
:10046800000E39EC0BF0CDD766D83BEC07F039EC31
:100478000BF0F1D752EC0BF0000905E060EC0BF043
:10048800460A01E1152A136A45EF0AF045EC0BF01C
:10049800000901E1120086EC0AF0000E6A6A48ECD5
:1004A80007F014500DEC07F04CD8D6EC0AF058ECD5
:1004B8000BF0A7D745EC0BF0000901E1120067EC3F
:1004C80003F048EC07F0FF0E4124716E726AFF0ECC
:1004D80072221450736E746A7150735C7450800A7F
:1004E800756E7250800A755806E214280DEC07F0F4
:1004F80028D8D6EC0AF0020E156E020C1550716E53
:10050800726A7250D8A412007150D8B41200010A4D
:1005180001E152D7030A01E159D7010A01E17CD769
:10052800070A83E0010A8BE0030AA4E0010AAEE0AF
:100538000F0AC0E012001450060DF350800F132468
:100548001200BC0E5E6E5F6A1200ABD0535084EC92
:1005580008F05F505E1005E18C0E5C5C0F0E5D5874
:1005680019E35A0E746E535027EC0AF04B2A090E01
:100578004B6410D04B6A4A2A050E4A640BD04A6A6B
:10058800492A090E496406D0496A482A080E48646F
:1005980001D0486A1C5010E05A0E741801E11B2A59
:1005A800D7EC08F0746E2A0E7418D8A412001C6ACE
:1005B8005BEC0BF0A8EF0AF01D50D8B41200050E42
:1005C8001B6E050C86EC0AF0000E6A6A48EC07F010
:1005D800850E5E6E1F0E5F6ED6EC0AF01B2A1200A7
:1005E80045EC0BF0000901E112006DD848EC07F06A
:1005F8004850300F426E4950300F436E3A0E446EE9
:100608004A50300F456E4B50300F466E476A420EC7
:100618005E6E5F6AD6EC0AF01B6A120045EC0BF0BE
:10062800000901E112004FD848EC07F0D7D71B6A40
:10063800D7EC08F0746E742801E112002A0E7418C1
:1006480004E11D6A30EC0BF0B3D7230E74180EE1E9
:10065800040E1E18D8A412001D6A01C048F002C07A
:1006680049F003C04AF004C04BF0A2D7040E1E188C
:10067800D8B412001E50010FD96EDA6A7450D00F28
:10068800DF6E7450F0EC09F01E2A020E1E1803E10A
:100698003A0EF0EC09F0040E1E18D8A4120030EF40
:1006A8000BF01B50726E736A7350D8A4120072500C
:1006B80001E14CD7010A86E0030A92E0060AAEE09F
:1006C800010AB5E01200010E6A6E000C8ED055507A
:1006D80084EC08F05F505E1004E1DAEC01F0D8A079
:1006E8001200555027EC0AF086EC0AF0272A12006F
:1006F80045EC0BF0000901E112000D500E10F6E078
:100708002650225C01E2266A000E6A6A48EC07F06D
:100718002650245C08E326500D245E6E000E0E2041
:100728005F6ED6EC0AF0262AE1D745EC0BF00009FB
:1007380001E112000D500E10D9E0265024C071F0CE
:100748006AD872BE05D07250D1E1100E715CCEE24B
:100758006A6A2650225C020F48EC07F00DC05EF072
:100768000EC05FF0D6EC0AF0C1D745EC0BF00009DB
:1007780001E112000B500C10B9E02550225C01E297
:10078800256A67EC03F048EC07F02550235C08E382
:1007980025500B245E6E000E0C205F6ED6EC0AF01E
:1007A800252AA4D745EC0BF0000901E112000B50F3
:1007B8000C1018E0255023C071F02DD872BE05D05A
:1007C800725010E1100E715C0DE2010E6A6E255038
:1007D800225C020F48EC07F00BC05EF00CC05FF023
:1007E800D6EC0AF0010E276E010C2750716E726A62
:1007F8007250D8A412007150D8B41200010A01E155
:1008080066D7030A01E174D7010A8FE0070AADE051
:10081800010AC8E01200726A715E000E725A000C7A
:1008280070D086EC0AF0B80E5E6E1F0E5F6ED6ECC6
:100838000AF0322A316A120045EC0BF0000901E196
:10084800120067EC03F048EC07F026EC0BF041ECE3
:100858000BF017EC0BF0322A120045EC0BF00009F4
:1008680001E11200D7EC08F0726E63D872C0DFFFA6
:10087800DE2801E112005DD82A0EDE1803E1010E20
:10088800326E010C56D8DF50F0EC09F0020E311828
:1008980005E130EC0BF055EC0BF0DDD7312A1200F6
:1008A800D7EC08F0746E742801E112002A0E74184F
:1008B800E6E0230E7418D8A41200540E39EC0BF09D
:1008C800B8D75BEC0BF052EC0BF00009D8B412006F
:1008D80060EC0BF04B0ABFE012004FEC0BF0000984
:1008E80001E1120026D8DF5039EC0BF0312A040E52
:1008F80031189FE012001CEC0BF0A8EC0AF0326AE9
:1009080012003250726E736A7350D8A4120072507B
:10091800D8B41200010A85E0030A8EE0010A9DE0BE
:10092800070ABEE0010ACDE0030AD7E0010AE3E0C6
:10093800120031504C0FD96EDA6A120058D0780E76
:10094800A96EA69EA69CA680182A1200A6A001D071
:100958001200A8CF41F00A0E416401D0416A166A1C
:10096800176AF2D74150171802E1186A1200175097
:10097800060DF3501624E4D7A6A001D01200175094
:100988004CD8A8CFDFFF050E161803E1172A166A00
:1009980001D0162A18061200060E166401D0E5D7F3
:1009A8004150060DF3501624A96E020E166005D0AC
:1009B800415033D8DF50A86E08D0050E1664F8D71A
:1009C800412A41C0A8FF780EA96EA69EA69CA684BF
:1009D800F29E550EA76EAA0EA76EA682B5D7A6A23E
:1009E80001D01200F28EA694162A1806120018508A
:1009F8005C6E5D6A5D50D8A412005C50D8B41200D9
:100A0800010A9DE0030AA2E0010AACE0070AB4E08B
:100A1800010AC2E0030AE3E01200060DF350800F5A
:100A28001624D96EDA6A120048D08A9A12000F503A
:100A3800696E10506A6E6B6A6C6A565084EC08F0E6
:100A48004DD807E3565027EC0AF0282A50D89DEFD6
:100A58000AF00B0E28640B0C296A2C6A12005750F6
:100A680084EC08F05F505E1005E1900E5C5C010EAE
:100A78005D5808E3575027EC0AF02C062950D8B4E3
:100A88002C061200585027EC0AF02C2A12002AC013
:100A980069F036D884EC08F021D8D8A012008A8AE8
:100AA800F4D72BC069F02CD884EC08F017D8D8A05C
:100AB80012008A9A020E2C6E020C2C50696E6A6A19
:100AC8006A50D8A412006950B0E0010AB0E0030AE5
:100AD800C6E0010ADCE0070AE4E0120069505C5C49
:100AE8006A505D586B505E586C505F581200010E8A
:100AF8002824F66EF76A1F0EF7220800F550120038
:100B08006A6A6B6A6C6A5850120056D052EC0BF045
:100B1800000901E112001950500FD96EDA6A60EC31
:100B28000BF0DF6E192A020E1918D8A41200196AE0
:100B38001A2A500E5E6E62EC0BF05F6E4DEF06F0F7
:100B48004FEC0BF0000901E112001950E5EC0AF036
:100B5800300F39EC0BF0192A040E1918D8A412001A
:100B68001A2A12004FEC0BF00009FAE11200C250E9
:100B7800C30B0409C26EC280C2821A2A525027EFE0
:100B88000AF0C2B21200C290525084EC08F01CEC79
:100B980009F001E11200C45039EC0BF0094A0A2AA5
:100BA800020E095C800E0A5805E31A6A45EC0AF041
:100BB800A8EF0AF01A0612001A50696E6A6A6A509B
:100BC800D8A412006950D8B41200010A9FE0030AA1
:100BD800B7E0010AC7E0070ACAE0010AD2E012003A
:100BE800706E590E5C6E21EC09F070C038F06FC061
:100BF80037F0356A366A959295949596716A726A55
:100C08006968595089EC09F0030E90EC06F0140E4F
:100C1800696E595089EC09F0030E90EC06F035D84E
:100C280089EC09F0030E90EC06F02FD889EC09F056
:100C3800020E90EC06F029D889EC09F0280E53EC46
:100C48000AF0FEEC08F0080E53EC0AF0FEEC08F08F
:100C5800010E53EC0AF08EEC0AF089EC09F0FEEC78
:100C680008F0060E53EC0AF0FEEC08F00F0E53ECF9
:100C78000AF0714A722A72BEC3D7725005E1020E99
:100C8800715CD8B01200BCD71200040E696E5950BE
:100C98001200090E416401D0090C415044EC07F0E0
:100CA80030D8E750D00FDF6E415040EC07F029D81C
:100CB800E12AE750D00FDF6E5F50D96EDA6A4150F3
:100CC800060DF350820F15D8D92A4150060DF3505E
:100CD800830F0FD8020E1BD8840F0BD8030E17D81A
:100CE800850FE16EE26ADFCFE7FF050E186E166A20
:100CF8001200E16EE26ADFCFE7FF5F50D96EDA6A71
:100D08001200D96EDA6A5E50E16EE26A1200D926E4
:100D18004150060DF35012005D6E959E37D88C82B7
:100D28005DA603D05C6A5C2A01D05C6A5C325C32E6
:100D38008C505C187F0B5C188C6E5DA403D05C6AC9
:100D48005C2A01D05C6A5C3A5C465C468C505C1854
:100D5800BF0B5C188C6E5DA203D05C6A5C2A01D064
:100D68005C6A5C3A5C468C505C18DF0B5C188C6ED5
:100D78005DA003D05C6A5C2A01D05C6A5C3A8C5046
:100D88005C18EF0B5C188C6E8C921200959C959AEF
:100D980095988C968C948C82120049EC0BF012EC8E
:100DA8000BF016EC0AF0B4EC09F0B2EC0AF092EC95
:100DB8000AF04CEC0BF0DCEC09F02BEC0BF000EC3F
:100DC8000BF03DEC0BF006EC0BF036EC0AF05EECA9
:100DD8000BF035EC0BF0100E6F6E020EF4EC05F014
:100DE80066EC0BF0A9EC02F083EC07F0FCEC00F0E9
:100DF80014EC04F00CEC00F025EC08F089EC05F09C
:100E08006AEC03F018EC05F0A2EC04F0DFEC01F05A
:100E1800E9D75C6E490E0001BC6F5C5031D827D809
:100E2800BD6F5C5029D823D8BE6F200EBF6F2D0E22
:100E3800C06F200EC16F5C50060DF350820F17D89B
:100E4800C26F5C50060DF350830F11D8C36F3A0E72
:100E5800C46F5C50060DF350840F09D8C56F5C5001
:100E6800060DF350850F03D8C66FC76B1200D96EF5
:100E7800DA6ADF50300F1200060DF350810F1200AE
:100E8800060DF350800F1200706E21D06A5004E0F6
:100E98006E6A400E6D6E02D06D6A6E6A70506D2477
:100EA8006F6E22D070C06FF06A0402E1400E0AD063
:100EB800020E6A1802E1375005D0030E6A1814E1D1
:100EC8003750400F6F2610D070C06FF00DD03850DB
:100ED8006B6E6C6A6C50F8E16B50010AF5E0030A1E
:100EE800D5E0060ADFE0F0D7FEEC08F06F50800985
:100EF80053EC0AF06AC036F070C035F0120016D014
:100F080021D8F76403D00800F55001D028D800098B
:100F18000BE018D8F76403D00800F55001D01FD8AB
:100F2800F0EC09F0342A1200330612003350726EC6
:100F3800736A7350D8A412007250D8B41200010A10
:100F4800DFE0120034501124726E000E1220736E0E
:100F580072C0F6FF73C0F7FFF86A010E1200F6CFF1
:100F6800E1FFF7CFE2FFE75012005D6E5DA603D008
:100F78005C6A5C2A01D05C6A5C325C328C505C181A
:100F88007F0B5C188C6E5DA403D05C6A5C2A01D070
:100F98005C6A5C3A5C465C468C505C18BF0B5C181B
:100FA8008C6E5DA203D05C6A5C2A01D05C6A5C3AF4
:100FB8005C468C505C18DF0B5C188C6E5DA003D00F
:100FC8005C6A5C2A01D05C6A5C3A8C505C18EF0B56
:100FD8005C188C6E12005D6E5DAE03D05C6A5C2A94
:100FE80001D05C6A5C325C328C505C187F0B5C18F8
:100FF8008C6E5DAC03D05C6A5C2A01D05C6A5C3A9A
:101008005C465C468C505C18BF0B5C188C6E5DAA05
:1010180003D05C6A5C2A01D05C6A5C3A5C468C50FE
:101028005C18DF0B5C188C6E5DA803D05C6A5C2AC8
:1010380001D05C6A5C3A8C505C18EF0B5C188C6EC3
:10104800120026D0305001E11200C30EC216C28031
:10105800C2822D2AC30CC2B21200C290100EC46004
:1010680002D0020E04D0F00EC46403D0010E2F6E1D
:101078000DD06F0EC4640AD0910EC46007D02F043F
:1010880003E0020E2F1802E1010E2E6E2D0612004B
:101098002D505C6E5D6A5D50D8A412005C50D2E0A1
:1010A800010AD9E01200715009E06FC00BF070C05E
:1010B8000CF021D804EC0AF0236E0AD086EC0AF072
:1010C8006FC00DF070C00EF016D804EC0AF0246E54
:1010D8002450235C03E323C072F002D024C072F0D2
:1010E800736A72C022F0256A266A555027EC0AF006
:1010F800020E276E020C6FC05CF070C05DF012002B
:10110800686EF29E05C064F006C065F007C066F020
:1011180008C067F0F28E685015D8DECF60F0DECFD9
:1011280061F0DECF62F0DECF63F06050645C5C6E2D
:10113800615065585D6E625066585E6E63506758C0
:101148005F6E1200050D000EF324D96E010EF42017
:10115800DA6E1200DC0EF66E140EF76E000EF86EE4
:1011680000EEC8F010EE18F00900F5CFEEFFE550DC
:10117800E150FAE101EE00F0500EEE6AE806FDE1FA
:1011880000EE80F0480EEE6AE806FDE100EE01F0A0
:101198005B0EEE6AE806FDE177907792000EF86E36
:1011A8000001D1EF06F03B5001E1FF0C3F500AE18E
:1011B800DD0E3D24F66EF76A1E0EF7220800F55084
:1011C8005E6E02D039C05EF05F6AD3EC01F0DECF0C
:1011D8005CF0DDCF5DF05E505C265F505D225CC048
:1011E800F6FF5DC0F7FF0800F5CF60F0396A3B6A8B
:1011F80060501200958E958C958A95888C968C8473
:10120800595027EC0AF08C828C82000E83BE010EA6
:10121800696E8C928C928C828C828C928C925950B2
:1012280084EC08F005D801E012006950ECE11200E6
:101238005C505D105E105F1012005E6A05D05E2A79
:10124800100E5E1801E112005E500CD8DE04F7E0C3
:101258005E5008D8010EDF6E5C50D96EDA6A5EC047
:10126800DFFF1200050D040EF324D96E010EF420E1
:10127800DA6E12005E6E959E959C959A95988C866E
:101288008C948C825E50EFEC07F00BD85E50B9EC72
:1012980007F000D08C828C92958E958C958A9588D3
:1012A80012008C828C928C928C821200010E1D6E20
:1012B8001E6A26EC0BF055EC0BF041EC0BF086ECBB
:1012C8000AF0000E6A6A48EC07F0A00E5E6E1F0E68
:1012D8005F6ED6EC0AF0040E1B6E040C41500BE155
:1012E80086EC0AF0740E5E6E1F0E5F6ED6EC0AF086
:1012F800010E156E06D0146A136A070E156E58ECA7
:101308000BF055EC0BF041EF0BF06E6E6E5027ECC6
:101318000AF069C06AF06B6A6C6A6D6A6E5084EC98
:1013280008F06A505C5C6B505D586C505E586D50AC
:101338005F58EFE3120086EC0AF0000E6A6A48EC88
:1013480007F0930E5E6E1F0E5F6ED6EC0AF00A6A07
:10135800096A09C019F0010E1A6E440E39EF0BF034
:10136800690E5C6E21EC09F0695027EC0AF06950AF
:1013780084EC08F05F505E105D1003E1A00E5C5C29
:10138800F6E36950FAEF0AF014505C6E5D6AFF0EDE
:1013980041245E6E5F6AFF0E5F225C505E1804E1B6
:1013A8005D505F1801E11200070E156E142A070C34
:1013B80094809482948693909392939493963B6AA4
:1013C8003F6A406A010E3E6E5B0E5C6E21EC09F0CE
:1013D8005A0E5C6E21EF09F0716EFEEC08F0715048
:1013E8003EEC09F0352A270E3564270C356A362A73
:1013F800010E366401D0366A6AEC0AF048EF07F04D
:10140800606A01D0602A60505C245E6E000E5D2028
:101418005F6E5EC0F6FF5FC0F7FF0800F550F2E1AF
:10142800605012005C6A5C5036EC09F0DF6A5C2A96
:101438000F0E5C64F8D7C30ED56ED76A640ED66EED
:10144800F294F28A640C5C6EF29E5C50A6EC08F092
:1014580005C0DEFF06C0DEFF07C0DEFF08C0DEFFF6
:10146800F28E1200939A8A9A296A580E5C6E21ECC1
:1014780009F0570E5C6E21EC09F0560E5C6E21EFF8
:1014880009F0010E296E286A060E106E820E0F6E84
:10149800565027EC0AF07BEC05F09DEF0AF05E6EE3
:1014A800959ECAEC06F05E50EFEC07F055EC09F09B
:1014B8005E50B9EC07F04EEF09F0716EFEEC08F0E3
:1014C80071503EEC09F002D848EF07F036C06AF0D8
:1014D80035501200FD1FD81FDD1FE21FE71FEC1F4C
:1014E800CC1FF11FD21FFB1FF61FF91FD8903E36E5
:1014F800100E3E1802E1010E3E6E8150F00B3E10B8
:10150800816E1200FEEC08F0010E53EC0AF002D8CE
:1015180089EF09F00A0E696E59501200948C948E66
:10152800B886200EAC6E900EAB6E2A0EAF6EB06A07
:1015380012005D6E020E2C6E5DC02BF0D8902B3021
:101548002A6E575027EF0AF0020E216E010E206E08
:1015580055EC0BF041EC0BF058EF0BF01B6A1D6AD1
:101568001C6A530E5C6E21EC09F0535027EF0AF009
:101578002E5001E1000C2E6A2FC05CF02F6A5C50DF
:101588001200640ED66EF294052A000E0622072277
:101598000822000C050E201801E11200020E216E2F
:1015A800202A020C5EC011F05FC012F0346A010EEE
:1015B800336E010C145001E11200070E156E14066B
:1015C800070C5C6E5C50480FD96EDA6ADF50120067
:1015D800200401E11200020E216E2006020C010E09
:1015E8001C6E1B6E55EC0BF041EF0BF05C6E5C5003
:1015F80036EC09F0DF6A1200550E5C6E21EC09F03A
:101608000CEF0BF092821A6A520E5C6E21EF09F011
:10161800276A0B6A0C6A0D6A0E6A12000D0EC16EFB
:10162800120EC06E120C3C68010E3F6E3A6A120030
:101638004B6A4A6A496A486A1200216A0CEC0BF044
:1016480064EF0BF0FEEC08F00E0E53EF0AF0216A7F
:10165800540E5C6E21EF09F0FEEC08F00C0E53EF0F
:101668000AF0416A010E186E010C5C6E5CC0ADFF99
:10167800120092802F6A2D6A1200010E406E3B6A9A
:1016880012003350D8B4010C000CD09EF28E120018
:10169800326A4F6A12009EB8010C000C9EBA010C07
:1016A800000C3A6A3F6A1200010E306E010C3B6A68
:1016B800406A1200156A1200AE501200480E12005D
:0C16C800306A1200322A12004C0E120090
:101ED0000004080C101434383C40141A0E0003039C
:101EE00003030304030400000001040404040405C4
:101EF0000405010201000102030405060708090A9E
:101F00000B040C3C08043C143C4014140E332E20EB
:101F10004D4F444946592043555252454E54205442
:101F2000494D4500342E2053484F572043555252B7
:101F3000454E542054494D4500352E20454E4420F1
:101F4000434F4D4D554E49434154494F4E00312E5C
:101F5000205354415254205245434F5244494E4716
:101F600000322E20504C4159205245434F52444993
:101F70004E4753004E4F205245434F5244494E471F
:101F8000532E2E2E0043555252454E542054494D47
:101F9000453A005245434F5244494E472E2E2E009B
:101FA0004D4F444946592054494D453A00504C4103
:101FB00059494E472E2E2E00504F5254204E414D1F
:101FC000453A00627965206279652000505152538C
:101FD00037005758595A3900414243320044454668
:101FE000330047484934004A4B4C35004D4E4F367C
:101FF00000545556380030200023002A00310000DC
:020000040020DA
:08000000FFFFFFFFFFFFFFFF00
:020000040030CA
:0E000000FF06191EFF0181FF03C003E003404D
:00000001FF
